{
  "contractName": "SchoolFeePayment",
  "abi": [
    {
      "inputs": [],
      "stateMutability": "nonpayable",
      "type": "constructor"
    },
    {
      "anonymous": false,
      "inputs": [
        {
          "indexed": true,
          "internalType": "address",
          "name": "student",
          "type": "address"
        },
        {
          "indexed": false,
          "internalType": "uint256",
          "name": "amount",
          "type": "uint256"
        }
      ],
      "name": "FeePaid",
      "type": "event"
    },
    {
      "inputs": [],
      "name": "owner",
      "outputs": [
        {
          "internalType": "address",
          "name": "",
          "type": "address"
        }
      ],
      "stateMutability": "view",
      "type": "function"
    },
    {
      "inputs": [
        {
          "internalType": "address",
          "name": "",
          "type": "address"
        }
      ],
      "name": "studentBalances",
      "outputs": [
        {
          "internalType": "uint256",
          "name": "",
          "type": "uint256"
        }
      ],
      "stateMutability": "view",
      "type": "function"
    },
    {
      "inputs": [
        {
          "internalType": "uint256",
          "name": "",
          "type": "uint256"
        }
      ],
      "name": "transactions",
      "outputs": [
        {
          "internalType": "address",
          "name": "student",
          "type": "address"
        },
        {
          "internalType": "uint256",
          "name": "amount",
          "type": "uint256"
        },
        {
          "internalType": "uint256",
          "name": "timestamp",
          "type": "uint256"
        }
      ],
      "stateMutability": "view",
      "type": "function"
    },
    {
      "inputs": [],
      "name": "payFee",
      "outputs": [],
      "stateMutability": "payable",
      "type": "function"
    },
    {
      "inputs": [
        {
          "internalType": "uint256",
          "name": "amount",
          "type": "uint256"
        }
      ],
      "name": "withdraw",
      "outputs": [],
      "stateMutability": "nonpayable",
      "type": "function"
    },
    {
      "inputs": [],
      "name": "getBalance",
      "outputs": [
        {
          "internalType": "uint256",
          "name": "",
          "type": "uint256"
        }
      ],
      "stateMutability": "view",
      "type": "function"
    },
    {
      "inputs": [],
      "name": "getTransactions",
      "outputs": [
        {
          "components": [
            {
              "internalType": "address",
              "name": "student",
              "type": "address"
            },
            {
              "internalType": "uint256",
              "name": "amount",
              "type": "uint256"
            },
            {
              "internalType": "uint256",
              "name": "timestamp",
              "type": "uint256"
            }
          ],
          "internalType": "struct SchoolFeePayment.Transaction[]",
          "name": "",
          "type": "tuple[]"
        }
      ],
      "stateMutability": "view",
      "type": "function"
    }
  ],
  "bytecode": "0x608060405234801561001057600080fd5b50336000806101000a81548173ffffffffffffffffffffffffffffffffffffffff021916908373ffffffffffffffffffffffffffffffffffffffff160217905550610a9d806100606000396000f3fe6080604052600436106100705760003560e01c806383920e901161004e57806383920e90146100d35780638da5cb5b146100fe5780639ace38c214610129578063b11913651461016857610070565b806312065fe01461007557806329610252146100a05780632e1a7d4d146100aa575b600080fd5b34801561008157600080fd5b5061008a6101a5565b6040516100979190610913565b60405180910390f35b6100a86101ad565b005b3480156100b657600080fd5b506100d160048036038101906100cc919061063c565b61034f565b005b3480156100df57600080fd5b506100e861048a565b6040516100f59190610891565b60405180910390f35b34801561010a57600080fd5b50610113610553565b604051610120919061083f565b60405180910390f35b34801561013557600080fd5b50610150600480360381019061014b919061063c565b610577565b60405161015f9392919061085a565b60405180910390f35b34801561017457600080fd5b5061018f600480360381019061018a9190610613565b6105d1565b60405161019c9190610913565b60405180910390f35b600047905090565b600034116101f0576040517f08c379a00000000000000000000000000000000000000000000000000000000081526004016101e7906108d3565b60405180910390fd5b34600160003373ffffffffffffffffffffffffffffffffffffffff1673ffffffffffffffffffffffffffffffffffffffff168152602001908152602001600020600082825461023f9190610978565b92505081905550600260405180606001604052803373ffffffffffffffffffffffffffffffffffffffff16815260200134815260200142815250908060018154018082558091505060019003906000526020600020906003020160009091909190915060008201518160000160006101000a81548173ffffffffffffffffffffffffffffffffffffffff021916908373ffffffffffffffffffffffffffffffffffffffff160217905550602082015181600101556040820151816002015550503373ffffffffffffffffffffffffffffffffffffffff167f075a2720282fdf622141dae0b048ef90a21a7e57c134c76912d19d006b3b3f6f346040516103459190610913565b60405180910390a2565b60008054906101000a900473ffffffffffffffffffffffffffffffffffffffff1673ffffffffffffffffffffffffffffffffffffffff163373ffffffffffffffffffffffffffffffffffffffff16146103dd576040517f08c379a00000000000000000000000000000000000000000000000000000000081526004016103d4906108f3565b60405180910390fd5b47811115610420576040517f08c379a0000000000000000000000000000000000000000000000000000000008152600401610417906108b3565b60405180910390fd5b60008054906101000a900473ffffffffffffffffffffffffffffffffffffffff1673ffffffffffffffffffffffffffffffffffffffff166108fc829081150290604051600060405180830381858888f19350505050158015610486573d6000803e3d6000fd5b5050565b60606002805480602002602001604051908101604052809291908181526020016000905b8282101561054a57838290600052602060002090600302016040518060600160405290816000820160009054906101000a900473ffffffffffffffffffffffffffffffffffffffff1673ffffffffffffffffffffffffffffffffffffffff1673ffffffffffffffffffffffffffffffffffffffff16815260200160018201548152602001600282015481525050815260200190600101906104ae565b50505050905090565b60008054906101000a900473ffffffffffffffffffffffffffffffffffffffff1681565b6002818154811061058757600080fd5b90600052602060002090600302016000915090508060000160009054906101000a900473ffffffffffffffffffffffffffffffffffffffff16908060010154908060020154905083565b60016020528060005260406000206000915090505481565b6000813590506105f881610a39565b92915050565b60008135905061060d81610a50565b92915050565b60006020828403121561062557600080fd5b6000610633848285016105e9565b91505092915050565b60006020828403121561064e57600080fd5b600061065c848285016105fe565b91505092915050565b600061067183836107df565b60608301905092915050565b610686816109ce565b82525050565b610695816109ce565b82525050565b60006106a68261093e565b6106b08185610956565b93506106bb8361092e565b8060005b838110156106ec5781516106d38882610665565b97506106de83610949565b9250506001810190506106bf565b5085935050505092915050565b6000610706602083610967565b91507f496e73756666696369656e742062616c616e636520696e20636f6e74726163746000830152602082019050919050565b6000610746602183610967565b91507f5061796d656e74206d7573742062652067726561746572207468616e207a657260008301527f6f000000000000000000000000000000000000000000000000000000000000006020830152604082019050919050565b60006107ac601b83610967565b91507f4f6e6c7920746865206f776e65722063616e20776974686472617700000000006000830152602082019050919050565b6060820160008201516107f5600085018261067d565b5060208201516108086020850182610821565b50604082015161081b6040850182610821565b50505050565b61082a81610a00565b82525050565b61083981610a00565b82525050565b6000602082019050610854600083018461068c565b92915050565b600060608201905061086f600083018661068c565b61087c6020830185610830565b6108896040830184610830565b949350505050565b600060208201905081810360008301526108ab818461069b565b905092915050565b600060208201905081810360008301526108cc816106f9565b9050919050565b600060208201905081810360008301526108ec81610739565b9050919050565b6000602082019050818103600083015261090c8161079f565b9050919050565b60006020820190506109286000830184610830565b92915050565b6000819050602082019050919050565b600081519050919050565b6000602082019050919050565b600082825260208201905092915050565b600082825260208201905092915050565b600061098382610a00565b915061098e83610a00565b9250827fffffffffffffffffffffffffffffffffffffffffffffffffffffffffffffffff038211156109c3576109c2610a0a565b5b828201905092915050565b60006109d9826109e0565b9050919050565b600073ffffffffffffffffffffffffffffffffffffffff82169050919050565b6000819050919050565b7f4e487b7100000000000000000000000000000000000000000000000000000000600052601160045260246000fd5b610a42816109ce565b8114610a4d57600080fd5b50565b610a5981610a00565b8114610a6457600080fd5b5056fea2646970667358221220c0e6cb561bb2f4db716ebc3179ad9afde45e87260216792ae66b6aeb05b092fa64736f6c63430008000033",
  "immutableReferences": {},
  "source": "// SPDX-License-Identifier: MIT\r\npragma solidity ^0.8.0;\r\n\r\ncontract SchoolFeePayment {\r\n    address public owner;\r\n    mapping(address => uint) public studentBalances;\r\n    struct Transaction {\r\n        address student;\r\n        uint amount;\r\n        uint timestamp;\r\n    }\r\n    Transaction[] public transactions;\r\n\r\n    event FeePaid(address indexed student, uint amount);\r\n\r\n    constructor() {\r\n        owner = msg.sender;\r\n    }\r\n\r\n    function payFee() public payable {\r\n        require(msg.value > 0, \"Payment must be greater than zero\");\r\n        studentBalances[msg.sender] += msg.value;\r\n        transactions.push(Transaction(msg.sender, msg.value, block.timestamp));\r\n        emit FeePaid(msg.sender, msg.value);\r\n    }\r\n\r\n    function withdraw(uint amount) public {\r\n        require(msg.sender == owner, \"Only the owner can withdraw\");\r\n        require(amount <= address(this).balance, \"Insufficient balance in contract\");\r\n        payable(owner).transfer(amount);\r\n    }\r\n\r\n    function getBalance() public view returns (uint) {\r\n        return address(this).balance;\r\n    }\r\n\r\n    function getTransactions() public view returns (Transaction[] memory) {\r\n        return transactions;\r\n    }\r\n}\r\n",
  "sourcePath": "C:\\Users\\PonfaJnr\\Desktop\\SchoolFeePayment\\contracts\\SchoolFeePayment.sol",
  "compiler": {
    "name": "solc",
    "version": "0.8.0+commit.c7dfd78e.Emscripten.clang"
  },
  "schemaVersion": "3.4.16",
  "updatedAt": "2024-06-25T01:20:27.107Z",
  "devdoc": {
    "kind": "dev",
    "methods": {},
    "version": 1
  },
  "userdoc": {
    "kind": "user",
    "methods": {},
    "version": 1
  }
}