{
  "contractName": "SchoolFeePayment",
  "abi": [
    {
      "inputs": [],
      "stateMutability": "nonpayable",
      "type": "constructor"
    },
    {
      "anonymous": false,
      "inputs": [
        {
          "indexed": true,
          "internalType": "address",
          "name": "student",
          "type": "address"
        },
        {
          "indexed": false,
          "internalType": "uint256",
          "name": "amount",
          "type": "uint256"
        }
      ],
      "name": "FeePaid",
      "type": "event"
    },
    {
      "inputs": [],
      "name": "owner",
      "outputs": [
        {
          "internalType": "address",
          "name": "",
          "type": "address"
        }
      ],
      "stateMutability": "view",
      "type": "function"
    },
    {
      "inputs": [
        {
          "internalType": "address",
          "name": "",
          "type": "address"
        }
      ],
      "name": "studentBalances",
      "outputs": [
        {
          "internalType": "uint256",
          "name": "",
          "type": "uint256"
        }
      ],
      "stateMutability": "view",
      "type": "function"
    },
    {
      "inputs": [],
      "name": "payFee",
      "outputs": [],
      "stateMutability": "payable",
      "type": "function"
    },
    {
      "inputs": [
        {
          "internalType": "uint256",
          "name": "amount",
          "type": "uint256"
        }
      ],
      "name": "withdraw",
      "outputs": [],
      "stateMutability": "nonpayable",
      "type": "function"
    },
    {
      "inputs": [],
      "name": "getBalance",
      "outputs": [
        {
          "internalType": "uint256",
          "name": "",
          "type": "uint256"
        }
      ],
      "stateMutability": "view",
      "type": "function"
    }
  ],
  "bytecode": "0x608060405234801561001057600080fd5b50336000806101000a81548173ffffffffffffffffffffffffffffffffffffffff021916908373ffffffffffffffffffffffffffffffffffffffff1602179055506106c9806100606000396000f3fe60806040526004361061004a5760003560e01c806312065fe01461004f578063296102521461007a5780632e1a7d4d146100845780638da5cb5b146100ad578063b1191365146100d8575b600080fd5b34801561005b57600080fd5b50610064610115565b6040516100719190610578565b60405180910390f35b61008261011d565b005b34801561009057600080fd5b506100ab60048036038101906100a691906103d0565b610206565b005b3480156100b957600080fd5b506100c2610341565b6040516100cf91906104fd565b60405180910390f35b3480156100e457600080fd5b506100ff60048036038101906100fa91906103a7565b610365565b60405161010c9190610578565b60405180910390f35b600047905090565b60003411610160576040517f08c379a000000000000000000000000000000000000000000000000000000000815260040161015790610538565b60405180910390fd5b34600160003373ffffffffffffffffffffffffffffffffffffffff1673ffffffffffffffffffffffffffffffffffffffff16815260200190815260200160002060008282546101af91906105a4565b925050819055503373ffffffffffffffffffffffffffffffffffffffff167f075a2720282fdf622141dae0b048ef90a21a7e57c134c76912d19d006b3b3f6f346040516101fc9190610578565b60405180910390a2565b60008054906101000a900473ffffffffffffffffffffffffffffffffffffffff1673ffffffffffffffffffffffffffffffffffffffff163373ffffffffffffffffffffffffffffffffffffffff1614610294576040517f08c379a000000000000000000000000000000000000000000000000000000000815260040161028b90610558565b60405180910390fd5b478111156102d7576040517f08c379a00000000000000000000000000000000000000000000000000000000081526004016102ce90610518565b60405180910390fd5b60008054906101000a900473ffffffffffffffffffffffffffffffffffffffff1673ffffffffffffffffffffffffffffffffffffffff166108fc829081150290604051600060405180830381858888f1935050505015801561033d573d6000803e3d6000fd5b5050565b60008054906101000a900473ffffffffffffffffffffffffffffffffffffffff1681565b60016020528060005260406000206000915090505481565b60008135905061038c81610665565b92915050565b6000813590506103a18161067c565b92915050565b6000602082840312156103b957600080fd5b60006103c78482850161037d565b91505092915050565b6000602082840312156103e257600080fd5b60006103f084828501610392565b91505092915050565b610402816105fa565b82525050565b6000610415602083610593565b91507f496e73756666696369656e742062616c616e636520696e20636f6e74726163746000830152602082019050919050565b6000610455602183610593565b91507f5061796d656e74206d7573742062652067726561746572207468616e207a657260008301527f6f000000000000000000000000000000000000000000000000000000000000006020830152604082019050919050565b60006104bb601b83610593565b91507f4f6e6c7920746865206f776e65722063616e20776974686472617700000000006000830152602082019050919050565b6104f78161062c565b82525050565b600060208201905061051260008301846103f9565b92915050565b6000602082019050818103600083015261053181610408565b9050919050565b6000602082019050818103600083015261055181610448565b9050919050565b60006020820190508181036000830152610571816104ae565b9050919050565b600060208201905061058d60008301846104ee565b92915050565b600082825260208201905092915050565b60006105af8261062c565b91506105ba8361062c565b9250827fffffffffffffffffffffffffffffffffffffffffffffffffffffffffffffffff038211156105ef576105ee610636565b5b828201905092915050565b60006106058261060c565b9050919050565b600073ffffffffffffffffffffffffffffffffffffffff82169050919050565b6000819050919050565b7f4e487b7100000000000000000000000000000000000000000000000000000000600052601160045260246000fd5b61066e816105fa565b811461067957600080fd5b50565b6106858161062c565b811461069057600080fd5b5056fea2646970667358221220b03486fe55176ba54e59f4782ead476c3f22ebdbc5c6c7a244d5fdae739f81ea64736f6c63430008000033",
  "immutableReferences": {},
  "source": "// SPDX-License-Identifier: MIT\r\npragma solidity ^0.8.0;\r\n\r\ncontract SchoolFeePayment {\r\n    address public owner;\r\n    mapping(address => uint) public studentBalances;\r\n\r\n    event FeePaid(address indexed student, uint amount);\r\n\r\n    constructor() {\r\n        owner = msg.sender;\r\n    }\r\n\r\n    function payFee() public payable {\r\n        require(msg.value > 0, \"Payment must be greater than zero\");\r\n        studentBalances[msg.sender] += msg.value;\r\n        emit FeePaid(msg.sender, msg.value);\r\n    }\r\n\r\n    function withdraw(uint amount) public {\r\n        require(msg.sender == owner, \"Only the owner can withdraw\");\r\n        require(amount <= address(this).balance, \"Insufficient balance in contract\");\r\n        payable(owner).transfer(amount);\r\n    }\r\n\r\n    function getBalance() public view returns (uint) {\r\n        return address(this).balance;\r\n    }\r\n}\r\n",
  "sourcePath": "C:\\Users\\PonfaJnr\\Desktop\\SchoolFeePayment\\contracts\\SchoolFeePayment.sol",
  "compiler": {
    "name": "solc",
    "version": "0.8.0+commit.c7dfd78e.Emscripten.clang"
  },
  "schemaVersion": "3.4.16",
  "updatedAt": "2024-06-25T01:14:32.813Z",
  "devdoc": {
    "kind": "dev",
    "methods": {},
    "version": 1
  },
  "userdoc": {
    "kind": "user",
    "methods": {},
    "version": 1
  }
}